{
  "contractName": "ERC721",
  "abi": [
    {
      "inputs": [
        {
          "internalType": "string",
          "name": "_name",
          "type": "string"
        }
      ],
      "stateMutability": "nonpayable",
      "type": "constructor"
    },
    {
      "anonymous": false,
      "inputs": [
        {
          "indexed": true,
          "internalType": "address",
          "name": "_owner",
          "type": "address"
        },
        {
          "indexed": true,
          "internalType": "address",
          "name": "_approved",
          "type": "address"
        },
        {
          "indexed": true,
          "internalType": "uint256",
          "name": "_tokenId",
          "type": "uint256"
        }
      ],
      "name": "Approval",
      "type": "event"
    },
    {
      "anonymous": false,
      "inputs": [
        {
          "indexed": true,
          "internalType": "address",
          "name": "_owner",
          "type": "address"
        },
        {
          "indexed": true,
          "internalType": "address",
          "name": "_operator",
          "type": "address"
        },
        {
          "indexed": false,
          "internalType": "bool",
          "name": "_approved",
          "type": "bool"
        }
      ],
      "name": "ApprovalForAll",
      "type": "event"
    },
    {
      "anonymous": false,
      "inputs": [
        {
          "indexed": true,
          "internalType": "address",
          "name": "_from",
          "type": "address"
        },
        {
          "indexed": true,
          "internalType": "address",
          "name": "_to",
          "type": "address"
        },
        {
          "indexed": true,
          "internalType": "uint256",
          "name": "_tokenId",
          "type": "uint256"
        }
      ],
      "name": "Transfer",
      "type": "event"
    },
    {
      "inputs": [],
      "name": "name",
      "outputs": [
        {
          "internalType": "string",
          "name": "",
          "type": "string"
        }
      ],
      "stateMutability": "view",
      "type": "function"
    },
    {
      "inputs": [
        {
          "internalType": "address",
          "name": "_owner",
          "type": "address"
        }
      ],
      "name": "balanceOf",
      "outputs": [
        {
          "internalType": "uint256",
          "name": "",
          "type": "uint256"
        }
      ],
      "stateMutability": "view",
      "type": "function"
    },
    {
      "inputs": [
        {
          "internalType": "uint256",
          "name": "_tokenId",
          "type": "uint256"
        }
      ],
      "name": "ownerOf",
      "outputs": [
        {
          "internalType": "address",
          "name": "",
          "type": "address"
        }
      ],
      "stateMutability": "view",
      "type": "function"
    },
    {
      "inputs": [
        {
          "internalType": "address",
          "name": "_from",
          "type": "address"
        },
        {
          "internalType": "address",
          "name": "_to",
          "type": "address"
        },
        {
          "internalType": "uint256",
          "name": "_tokenId",
          "type": "uint256"
        }
      ],
      "name": "safeTransferFrom",
      "outputs": [],
      "stateMutability": "payable",
      "type": "function"
    },
    {
      "inputs": [
        {
          "internalType": "address",
          "name": "_from",
          "type": "address"
        },
        {
          "internalType": "address",
          "name": "_to",
          "type": "address"
        },
        {
          "internalType": "uint256",
          "name": "_tokenId",
          "type": "uint256"
        },
        {
          "internalType": "bytes",
          "name": "data",
          "type": "bytes"
        }
      ],
      "name": "safeTransferFrom",
      "outputs": [],
      "stateMutability": "payable",
      "type": "function"
    },
    {
      "inputs": [
        {
          "internalType": "address",
          "name": "_from",
          "type": "address"
        },
        {
          "internalType": "address",
          "name": "_to",
          "type": "address"
        },
        {
          "internalType": "uint256",
          "name": "_tokenId",
          "type": "uint256"
        }
      ],
      "name": "transferFrom",
      "outputs": [],
      "stateMutability": "payable",
      "type": "function"
    },
    {
      "inputs": [
        {
          "internalType": "address",
          "name": "_approved",
          "type": "address"
        },
        {
          "internalType": "uint256",
          "name": "_tokenId",
          "type": "uint256"
        }
      ],
      "name": "approve",
      "outputs": [],
      "stateMutability": "payable",
      "type": "function"
    },
    {
      "inputs": [
        {
          "internalType": "address",
          "name": "_operator",
          "type": "address"
        },
        {
          "internalType": "bool",
          "name": "_approved",
          "type": "bool"
        }
      ],
      "name": "setApprovalForAll",
      "outputs": [],
      "stateMutability": "nonpayable",
      "type": "function"
    },
    {
      "inputs": [
        {
          "internalType": "uint256",
          "name": "_tokenId",
          "type": "uint256"
        }
      ],
      "name": "getApproved",
      "outputs": [
        {
          "internalType": "address",
          "name": "",
          "type": "address"
        }
      ],
      "stateMutability": "view",
      "type": "function"
    },
    {
      "inputs": [
        {
          "internalType": "address",
          "name": "_owner",
          "type": "address"
        },
        {
          "internalType": "address",
          "name": "_operator",
          "type": "address"
        }
      ],
      "name": "isApprovedForAll",
      "outputs": [
        {
          "internalType": "bool",
          "name": "",
          "type": "bool"
        }
      ],
      "stateMutability": "view",
      "type": "function"
    },
    {
      "inputs": [
        {
          "internalType": "address",
          "name": "_to",
          "type": "address"
        },
        {
          "internalType": "uint256",
          "name": "_tokenId",
          "type": "uint256"
        }
      ],
      "name": "mint",
      "outputs": [],
      "stateMutability": "nonpayable",
      "type": "function"
    },
    {
      "inputs": [
        {
          "internalType": "bytes4",
          "name": "interfaceId",
          "type": "bytes4"
        }
      ],
      "name": "supportsInterface",
      "outputs": [
        {
          "internalType": "bool",
          "name": "",
          "type": "bool"
        }
      ],
      "stateMutability": "view",
      "type": "function"
    }
  ],
  "bytecode": "0x608060405234801562000010575f80fd5b506040516200215e3803806200215e8339818101604052810190620000369190620001d4565b80600490816200004791906200045a565b50506200053e565b5f604051905090565b5f80fd5b5f80fd5b5f80fd5b5f80fd5b5f601f19601f8301169050919050565b7f4e487b71000000000000000000000000000000000000000000000000000000005f52604160045260245ffd5b620000b08262000068565b810181811067ffffffffffffffff82111715620000d257620000d162000078565b5b80604052505050565b5f620000e66200004f565b9050620000f48282620000a5565b919050565b5f67ffffffffffffffff82111562000116576200011562000078565b5b620001218262000068565b9050602081019050919050565b5f5b838110156200014d57808201518184015260208101905062000130565b5f8484015250505050565b5f6200016e6200016884620000f9565b620000db565b9050828152602081018484840111156200018d576200018c62000064565b5b6200019a8482856200012e565b509392505050565b5f82601f830112620001b957620001b862000060565b5b8151620001cb84826020860162000158565b91505092915050565b5f60208284031215620001ec57620001eb62000058565b5b5f82015167ffffffffffffffff8111156200020c576200020b6200005c565b5b6200021a84828501620001a2565b91505092915050565b5f81519050919050565b7f4e487b71000000000000000000000000000000000000000000000000000000005f52602260045260245ffd5b5f60028204905060018216806200027257607f821691505b6020821081036200028857620002876200022d565b5b50919050565b5f819050815f5260205f209050919050565b5f6020601f8301049050919050565b5f82821b905092915050565b5f60088302620002ec7fffffffffffffffffffffffffffffffffffffffffffffffffffffffffffffffff82620002af565b620002f88683620002af565b95508019841693508086168417925050509392505050565b5f819050919050565b5f819050919050565b5f620003426200033c620003368462000310565b62000319565b62000310565b9050919050565b5f819050919050565b6200035d8362000322565b620003756200036c8262000349565b848454620002bb565b825550505050565b5f90565b6200038b6200037d565b6200039881848462000352565b505050565b5b81811015620003bf57620003b35f8262000381565b6001810190506200039e565b5050565b601f8211156200040e57620003d8816200028e565b620003e384620002a0565b81016020851015620003f3578190505b6200040b6200040285620002a0565b8301826200039d565b50505b505050565b5f82821c905092915050565b5f620004305f198460080262000413565b1980831691505092915050565b5f6200044a83836200041f565b9150826002028217905092915050565b620004658262000223565b67ffffffffffffffff81111562000481576200048062000078565b5b6200048d82546200025a565b6200049a828285620003c3565b5f60209050601f831160018114620004d0575f8415620004bb578287015190505b620004c785826200043d565b86555062000536565b601f198416620004e0866200028e565b5f5b828110156200050957848901518255600182019150602085019450602081019050620004e2565b8683101562000529578489015162000525601f8916826200041f565b8355505b6001600288020188555050505b505050505050565b611c12806200054c5f395ff3fe6080604052600436106100a6575f3560e01c806342842e0e1161006357806342842e0e146101ac5780636352211e146101c857806370a0823114610204578063a22cb46514610240578063b88d4fde14610268578063e985e9c514610284576100a6565b806301ffc9a7146100aa57806306fdde03146100e6578063081812fc14610110578063095ea7b31461014c57806323b872dd1461016857806340c10f1914610184575b5f80fd5b3480156100b5575f80fd5b506100d060048036038101906100cb919061148b565b6102c0565b6040516100dd91906114d0565b60405180910390f35b3480156100f1575f80fd5b506100fa610329565b6040516101079190611573565b60405180910390f35b34801561011b575f80fd5b50610136600480360381019061013191906115c6565b6103b5565b6040516101439190611630565b60405180910390f35b61016660048036038101906101619190611673565b6103ee565b005b610182600480360381019061017d91906116b1565b6105d2565b005b34801561018f575f80fd5b506101aa60048036038101906101a59190611673565b610981565b005b6101c660048036038101906101c191906116b1565b610b20565b005b3480156101d3575f80fd5b506101ee60048036038101906101e991906115c6565b610e7b565b6040516101fb9190611630565b60405180910390f35b34801561020f575f80fd5b5061022a60048036038101906102259190611701565b610eb4565b604051610237919061173b565b60405180910390f35b34801561024b575f80fd5b506102666004803603810190610261919061177e565b610f30565b005b610282600480360381019061027d91906118e8565b611028565b005b34801561028f575f80fd5b506102aa60048036038101906102a59190611968565b611386565b6040516102b791906114d0565b60405180910390f35b5f7f80ac58cd000000000000000000000000000000000000000000000000000000007bffffffffffffffffffffffffffffffffffffffffffffffffffffffff1916827bffffffffffffffffffffffffffffffffffffffffffffffffffffffff1916149050919050565b60048054610336906119d3565b80601f0160208091040260200160405190810160405280929190818152602001828054610362906119d3565b80156103ad5780601f10610384576101008083540402835291602001916103ad565b820191905f5260205f20905b81548152906001019060200180831161039057829003601f168201915b505050505081565b5f60025f8381526020019081526020015f205f9054906101000a900473ffffffffffffffffffffffffffffffffffffffff169050919050565b5f60015f8381526020019081526020015f205f9054906101000a900473ffffffffffffffffffffffffffffffffffffffff1690505f73ffffffffffffffffffffffffffffffffffffffff168173ffffffffffffffffffffffffffffffffffffffff1603610459575f80fd5b8073ffffffffffffffffffffffffffffffffffffffff163373ffffffffffffffffffffffffffffffffffffffff16148061051b57506001151560035f8373ffffffffffffffffffffffffffffffffffffffff1673ffffffffffffffffffffffffffffffffffffffff1681526020019081526020015f205f3373ffffffffffffffffffffffffffffffffffffffff1673ffffffffffffffffffffffffffffffffffffffff1681526020019081526020015f205f9054906101000a900460ff161515145b610523575f80fd5b8260025f8481526020019081526020015f205f6101000a81548173ffffffffffffffffffffffffffffffffffffffff021916908373ffffffffffffffffffffffffffffffffffffffff160217905550818373ffffffffffffffffffffffffffffffffffffffff168273ffffffffffffffffffffffffffffffffffffffff167f8c5be1e5ebec7d5bd14f71427d1e84f3dd0314c0f7b2291e5b200ac8c7c3b92560405160405180910390a4505050565b5f60015f8381526020019081526020015f205f9054906101000a900473ffffffffffffffffffffffffffffffffffffffff1690505f73ffffffffffffffffffffffffffffffffffffffff168173ffffffffffffffffffffffffffffffffffffffff160361063d575f80fd5b3373ffffffffffffffffffffffffffffffffffffffff168173ffffffffffffffffffffffffffffffffffffffff1614806106d257503373ffffffffffffffffffffffffffffffffffffffff1660025f8481526020019081526020015f205f9054906101000a900473ffffffffffffffffffffffffffffffffffffffff1673ffffffffffffffffffffffffffffffffffffffff16145b8061076557506001151560035f8373ffffffffffffffffffffffffffffffffffffffff1673ffffffffffffffffffffffffffffffffffffffff1681526020019081526020015f205f3373ffffffffffffffffffffffffffffffffffffffff1673ffffffffffffffffffffffffffffffffffffffff1681526020019081526020015f205f9054906101000a900460ff161515145b61076d575f80fd5b8373ffffffffffffffffffffffffffffffffffffffff168173ffffffffffffffffffffffffffffffffffffffff161480156107d457505f73ffffffffffffffffffffffffffffffffffffffff168373ffffffffffffffffffffffffffffffffffffffff1614155b6107dc575f80fd5b5f60025f8481526020019081526020015f205f6101000a81548173ffffffffffffffffffffffffffffffffffffffff021916908373ffffffffffffffffffffffffffffffffffffffff16021790555060015f808673ffffffffffffffffffffffffffffffffffffffff1673ffffffffffffffffffffffffffffffffffffffff1681526020019081526020015f205f8282546108779190611a30565b9250508190555060015f808573ffffffffffffffffffffffffffffffffffffffff1673ffffffffffffffffffffffffffffffffffffffff1681526020019081526020015f205f8282546108ca9190611a63565b925050819055508260015f8481526020019081526020015f205f6101000a81548173ffffffffffffffffffffffffffffffffffffffff021916908373ffffffffffffffffffffffffffffffffffffffff160217905550818373ffffffffffffffffffffffffffffffffffffffff168573ffffffffffffffffffffffffffffffffffffffff167fddf252ad1be2c89b69c2b068fc378daa952ba7f163c4a11628f55a4df523b3ef60405160405180910390a450505050565b5f73ffffffffffffffffffffffffffffffffffffffff168273ffffffffffffffffffffffffffffffffffffffff16036109b8575f80fd5b5f73ffffffffffffffffffffffffffffffffffffffff1660015f8381526020019081526020015f205f9054906101000a900473ffffffffffffffffffffffffffffffffffffffff1673ffffffffffffffffffffffffffffffffffffffff1614610a1f575f80fd5b60015f808473ffffffffffffffffffffffffffffffffffffffff1673ffffffffffffffffffffffffffffffffffffffff1681526020019081526020015f205f828254610a6b9190611a63565b925050819055508160015f8381526020019081526020015f205f6101000a81548173ffffffffffffffffffffffffffffffffffffffff021916908373ffffffffffffffffffffffffffffffffffffffff160217905550808273ffffffffffffffffffffffffffffffffffffffff165f73ffffffffffffffffffffffffffffffffffffffff167fddf252ad1be2c89b69c2b068fc378daa952ba7f163c4a11628f55a4df523b3ef60405160405180910390a45050565b3373ffffffffffffffffffffffffffffffffffffffff168373ffffffffffffffffffffffffffffffffffffffff16148015610b8757505f73ffffffffffffffffffffffffffffffffffffffff168273ffffffffffffffffffffffffffffffffffffffff1614155b8015610bef57505f73ffffffffffffffffffffffffffffffffffffffff1660015f8381526020019081526020015f205f9054906101000a900473ffffffffffffffffffffffffffffffffffffffff1673ffffffffffffffffffffffffffffffffffffffff1614155b610bf7575f80fd5b5f60025f8381526020019081526020015f205f6101000a81548173ffffffffffffffffffffffffffffffffffffffff021916908373ffffffffffffffffffffffffffffffffffffffff16021790555060015f808573ffffffffffffffffffffffffffffffffffffffff1673ffffffffffffffffffffffffffffffffffffffff1681526020019081526020015f205f828254610c929190611a30565b9250508190555060015f808473ffffffffffffffffffffffffffffffffffffffff1673ffffffffffffffffffffffffffffffffffffffff1681526020019081526020015f205f828254610ce59190611a63565b925050819055508160015f8381526020019081526020015f205f6101000a81548173ffffffffffffffffffffffffffffffffffffffff021916908373ffffffffffffffffffffffffffffffffffffffff160217905550808273ffffffffffffffffffffffffffffffffffffffff168473ffffffffffffffffffffffffffffffffffffffff167fddf252ad1be2c89b69c2b068fc378daa952ba7f163c4a11628f55a4df523b3ef60405160405180910390a4610d9f82611414565b15610e76575f8273ffffffffffffffffffffffffffffffffffffffff1663150b7a023386856040518463ffffffff1660e01b8152600401610de293929190611ac9565b6020604051808303815f875af1158015610dfe573d5f803e3d5ffd5b505050506040513d601f19601f82011682018060405250810190610e229190611b25565b905063150b7a0260e01b7bffffffffffffffffffffffffffffffffffffffffffffffffffffffff1916817bffffffffffffffffffffffffffffffffffffffffffffffffffffffff191614610e74575f80fd5b505b505050565b5f60015f8381526020019081526020015f205f9054906101000a900473ffffffffffffffffffffffffffffffffffffffff169050919050565b5f8073ffffffffffffffffffffffffffffffffffffffff168273ffffffffffffffffffffffffffffffffffffffff1603610eec575f80fd5b5f808373ffffffffffffffffffffffffffffffffffffffff1673ffffffffffffffffffffffffffffffffffffffff1681526020019081526020015f20549050919050565b8060035f3373ffffffffffffffffffffffffffffffffffffffff1673ffffffffffffffffffffffffffffffffffffffff1681526020019081526020015f205f8473ffffffffffffffffffffffffffffffffffffffff1673ffffffffffffffffffffffffffffffffffffffff1681526020019081526020015f205f6101000a81548160ff0219169083151502179055508173ffffffffffffffffffffffffffffffffffffffff163373ffffffffffffffffffffffffffffffffffffffff167f17307eab39ab6107e8899845ad3d59bd9653f200f220920489ca2b5937696c318360405161101c91906114d0565b60405180910390a35050565b3373ffffffffffffffffffffffffffffffffffffffff168473ffffffffffffffffffffffffffffffffffffffff1614801561108f57505f73ffffffffffffffffffffffffffffffffffffffff168373ffffffffffffffffffffffffffffffffffffffff1614155b80156110f757505f73ffffffffffffffffffffffffffffffffffffffff1660015f8481526020019081526020015f205f9054906101000a900473ffffffffffffffffffffffffffffffffffffffff1673ffffffffffffffffffffffffffffffffffffffff1614155b6110ff575f80fd5b5f60025f8481526020019081526020015f205f6101000a81548173ffffffffffffffffffffffffffffffffffffffff021916908373ffffffffffffffffffffffffffffffffffffffff16021790555060015f808673ffffffffffffffffffffffffffffffffffffffff1673ffffffffffffffffffffffffffffffffffffffff1681526020019081526020015f205f82825461119a9190611a30565b9250508190555060015f808573ffffffffffffffffffffffffffffffffffffffff1673ffffffffffffffffffffffffffffffffffffffff1681526020019081526020015f205f8282546111ed9190611a63565b925050819055508260015f8481526020019081526020015f205f6101000a81548173ffffffffffffffffffffffffffffffffffffffff021916908373ffffffffffffffffffffffffffffffffffffffff160217905550818373ffffffffffffffffffffffffffffffffffffffff168573ffffffffffffffffffffffffffffffffffffffff167fddf252ad1be2c89b69c2b068fc378daa952ba7f163c4a11628f55a4df523b3ef60405160405180910390a46112a783611414565b15611380575f8373ffffffffffffffffffffffffffffffffffffffff1663150b7a02338786866040518563ffffffff1660e01b81526004016112ec9493929190611b92565b6020604051808303815f875af1158015611308573d5f803e3d5ffd5b505050506040513d601f19601f8201168201806040525081019061132c9190611b25565b905063150b7a0260e01b7bffffffffffffffffffffffffffffffffffffffffffffffffffffffff1916817bffffffffffffffffffffffffffffffffffffffffffffffffffffffff19161461137e575f80fd5b505b50505050565b5f60035f8473ffffffffffffffffffffffffffffffffffffffff1673ffffffffffffffffffffffffffffffffffffffff1681526020019081526020015f205f8373ffffffffffffffffffffffffffffffffffffffff1673ffffffffffffffffffffffffffffffffffffffff1681526020019081526020015f205f9054906101000a900460ff16905092915050565b5f80823b90505f8111915050919050565b5f604051905090565b5f80fd5b5f80fd5b5f7fffffffff0000000000000000000000000000000000000000000000000000000082169050919050565b61146a81611436565b8114611474575f80fd5b50565b5f8135905061148581611461565b92915050565b5f602082840312156114a05761149f61142e565b5b5f6114ad84828501611477565b91505092915050565b5f8115159050919050565b6114ca816114b6565b82525050565b5f6020820190506114e35f8301846114c1565b92915050565b5f81519050919050565b5f82825260208201905092915050565b5f5b83811015611520578082015181840152602081019050611505565b5f8484015250505050565b5f601f19601f8301169050919050565b5f611545826114e9565b61154f81856114f3565b935061155f818560208601611503565b6115688161152b565b840191505092915050565b5f6020820190508181035f83015261158b818461153b565b905092915050565b5f819050919050565b6115a581611593565b81146115af575f80fd5b50565b5f813590506115c08161159c565b92915050565b5f602082840312156115db576115da61142e565b5b5f6115e8848285016115b2565b91505092915050565b5f73ffffffffffffffffffffffffffffffffffffffff82169050919050565b5f61161a826115f1565b9050919050565b61162a81611610565b82525050565b5f6020820190506116435f830184611621565b92915050565b61165281611610565b811461165c575f80fd5b50565b5f8135905061166d81611649565b92915050565b5f80604083850312156116895761168861142e565b5b5f6116968582860161165f565b92505060206116a7858286016115b2565b9150509250929050565b5f805f606084860312156116c8576116c761142e565b5b5f6116d58682870161165f565b93505060206116e68682870161165f565b92505060406116f7868287016115b2565b9150509250925092565b5f602082840312156117165761171561142e565b5b5f6117238482850161165f565b91505092915050565b61173581611593565b82525050565b5f60208201905061174e5f83018461172c565b92915050565b61175d816114b6565b8114611767575f80fd5b50565b5f8135905061177881611754565b92915050565b5f80604083850312156117945761179361142e565b5b5f6117a18582860161165f565b92505060206117b28582860161176a565b9150509250929050565b5f80fd5b5f80fd5b7f4e487b71000000000000000000000000000000000000000000000000000000005f52604160045260245ffd5b6117fa8261152b565b810181811067ffffffffffffffff82111715611819576118186117c4565b5b80604052505050565b5f61182b611425565b905061183782826117f1565b919050565b5f67ffffffffffffffff821115611856576118556117c4565b5b61185f8261152b565b9050602081019050919050565b828183375f83830152505050565b5f61188c6118878461183c565b611822565b9050828152602081018484840111156118a8576118a76117c0565b5b6118b384828561186c565b509392505050565b5f82601f8301126118cf576118ce6117bc565b5b81356118df84826020860161187a565b91505092915050565b5f805f8060808587031215611900576118ff61142e565b5b5f61190d8782880161165f565b945050602061191e8782880161165f565b935050604061192f878288016115b2565b925050606085013567ffffffffffffffff8111156119505761194f611432565b5b61195c878288016118bb565b91505092959194509250565b5f806040838503121561197e5761197d61142e565b5b5f61198b8582860161165f565b925050602061199c8582860161165f565b9150509250929050565b7f4e487b71000000000000000000000000000000000000000000000000000000005f52602260045260245ffd5b5f60028204905060018216806119ea57607f821691505b6020821081036119fd576119fc6119a6565b5b50919050565b7f4e487b71000000000000000000000000000000000000000000000000000000005f52601160045260245ffd5b5f611a3a82611593565b9150611a4583611593565b9250828203905081811115611a5d57611a5c611a03565b5b92915050565b5f611a6d82611593565b9150611a7883611593565b9250828201905080821115611a9057611a8f611a03565b5b92915050565b5f82825260208201905092915050565b50565b5f611ab45f83611a96565b9150611abf82611aa6565b5f82019050919050565b5f608082019050611adc5f830186611621565b611ae96020830185611621565b611af6604083018461172c565b8181036060830152611b0781611aa9565b9050949350505050565b5f81519050611b1f81611461565b92915050565b5f60208284031215611b3a57611b3961142e565b5b5f611b4784828501611b11565b91505092915050565b5f81519050919050565b5f611b6482611b50565b611b6e8185611a96565b9350611b7e818560208601611503565b611b878161152b565b840191505092915050565b5f608082019050611ba55f830187611621565b611bb26020830186611621565b611bbf604083018561172c565b8181036060830152611bd18184611b5a565b90509594505050505056fea26469706673582212200cfa9c2727a6db1a46914b823acf8804e18fa9e300e207359d8230fed81eca9f64736f6c63430008180033",
  "immutableReferences": {},
  "source": "pragma solidity ^0.8.24;\r\n// SPDX-License-Identifier: MIT\r\n\r\nimport \"./IERC721.sol\";\r\nimport \"./ERC165.sol\";\r\nimport \"./IERC721Receiver.sol\";\r\n/**\r\n * @title ERC721 implementation\r\n * @notice Implementation of the ERC721 interface\r\n */\r\ncontract ERC721 is IERC721, ERC165 {\r\n    mapping(address => uint256) private _balanceOf; // number of token in each account\r\n    mapping(uint256 => address) private _ownerOf; // owner of each token\r\n    mapping(uint256 => address) private _approvals; // approved address for each token\r\n    mapping(address => mapping(address => bool)) private _operatorApprovals; // operator approval for each address\r\n    string public name;\r\n    constructor(string memory _name) {\r\n        name = _name;\r\n    }\r\n    function balanceOf(\r\n        address _owner\r\n    ) external view override returns (uint256) {\r\n        require(_owner != address(0));\r\n        return _balanceOf[_owner];\r\n    }\r\n\r\n    function ownerOf(\r\n        uint256 _tokenId\r\n    ) external view override returns (address) {\r\n        return _ownerOf[_tokenId];\r\n    }\r\n\r\n    function _isContract(address account) internal view returns (bool) {\r\n        uint256 size;\r\n        assembly {\r\n            size := extcodesize(account)\r\n        }\r\n        return size > 0;\r\n    }\r\n    function safeTransferFrom(\r\n        address _from,\r\n        address _to,\r\n        uint256 _tokenId,\r\n        bytes memory data\r\n    ) external payable override {\r\n        require(\r\n            _from == msg.sender &&\r\n                _to != address(0) &&\r\n                _ownerOf[_tokenId] != address(0)\r\n        );\r\n        _approvals[_tokenId] = address(0);\r\n        _balanceOf[_from] -= 1;\r\n        _balanceOf[_to] += 1;\r\n        _ownerOf[_tokenId] = _to;\r\n        emit Transfer(_from, _to, _tokenId);\r\n        if (!_isContract(_to)) {\r\n            return;\r\n        }\r\n        bytes4 retval = IERC721TokenReceiver(_to).onERC721Received(\r\n            msg.sender,\r\n            _from,\r\n            _tokenId,\r\n            data\r\n        );\r\n        require(retval == IERC721TokenReceiver.onERC721Received.selector);\r\n    }\r\n\r\n    function safeTransferFrom(\r\n        address _from,\r\n        address _to,\r\n        uint _tokenId\r\n    ) external payable override {\r\n        require(\r\n            _from == msg.sender &&\r\n                _to != address(0) &&\r\n                _ownerOf[_tokenId] != address(0)\r\n        );\r\n        _approvals[_tokenId] = address(0);\r\n        _balanceOf[_from] -= 1;\r\n        _balanceOf[_to] += 1;\r\n        _ownerOf[_tokenId] = _to;\r\n        emit Transfer(_from, _to, _tokenId);\r\n        if (!_isContract(_to)) {\r\n            return;\r\n        }\r\n        bytes4 retval = IERC721TokenReceiver(_to).onERC721Received(\r\n            msg.sender,\r\n            _from,\r\n            _tokenId,\r\n            \"\"\r\n        );\r\n        require(retval == IERC721TokenReceiver(_to).onERC721Received.selector);\r\n    }\r\n\r\n    function transferFrom(\r\n        address _from,\r\n        address _to,\r\n        uint256 _tokenId\r\n    ) external payable override {\r\n        address owner = _ownerOf[_tokenId];\r\n        require(owner != address(0));\r\n        require(\r\n            owner == msg.sender ||\r\n                _approvals[_tokenId] == msg.sender ||\r\n                _operatorApprovals[owner][msg.sender] == true\r\n        );\r\n        require(owner == _from && _to != address(0));\r\n\r\n        _approvals[_tokenId] = address(0);\r\n        _balanceOf[_from] -= 1;\r\n        _balanceOf[_to] += 1;\r\n        _ownerOf[_tokenId] = _to;\r\n        emit Transfer(_from, _to, _tokenId);\r\n    }\r\n\r\n    function approve(\r\n        address _approved,\r\n        uint256 _tokenId\r\n    ) external payable override {\r\n        address owner = _ownerOf[_tokenId];\r\n        require(owner != address(0));\r\n        require(\r\n            msg.sender == owner || _operatorApprovals[owner][msg.sender] == true\r\n        );\r\n        _approvals[_tokenId] = _approved;\r\n        emit Approval(owner, _approved, _tokenId);\r\n    }\r\n\r\n    function setApprovalForAll(\r\n        address _operator,\r\n        bool _approved\r\n    ) external override {\r\n        _operatorApprovals[msg.sender][_operator] = _approved;\r\n        emit ApprovalForAll(msg.sender, _operator, _approved);\r\n    }\r\n\r\n    function getApproved(\r\n        uint256 _tokenId\r\n    ) external view override returns (address) {\r\n        return _approvals[_tokenId];\r\n    }\r\n\r\n    function isApprovedForAll(\r\n        address _owner,\r\n        address _operator\r\n    ) external view override returns (bool) {\r\n        return _operatorApprovals[_owner][_operator];\r\n    }\r\n    function mint(address _to, uint256 _tokenId) public {\r\n        require(_to != address(0));\r\n        require(_ownerOf[_tokenId] == address(0));\r\n        _balanceOf[_to] += 1;\r\n        _ownerOf[_tokenId] = _to;\r\n        emit Transfer(address(0), _to, _tokenId);\r\n    }\r\n\r\n    /**\r\n     * @notice Check if a contract implements an interface\r\n     */\r\n    function supportsInterface(\r\n        bytes4 interfaceId\r\n    ) public view virtual override(ERC165) returns (bool) {\r\n        return interfaceId == type(IERC721).interfaceId;\r\n    }\r\n}\r\n",
  "sourcePath": "C:\\Users\\login\\Contract2077\\truffle\\contracts\\ERC721.sol",
  "compiler": {
    "name": "solc",
    "version": "0.8.24+commit.e11b9ed9.Emscripten.clang"
  },
  "schemaVersion": "3.4.16",
  "updatedAt": "2024-03-15T07:47:53.450Z",
  "devdoc": {
    "events": {
      "Approval(address,address,uint256)": {
        "details": "This emits when the approved address for an NFT is changed or  reaffirmed. The zero address indicates there is no approved address.  When a Transfer event emits, this also indicates that the approved  address for that NFT (if any) is reset to none."
      },
      "ApprovalForAll(address,address,bool)": {
        "details": "This emits when an operator is enabled or disabled for an owner.  The operator can manage all NFTs of the owner."
      },
      "Transfer(address,address,uint256)": {
        "details": "This emits when ownership of any NFT changes by any mechanism.  This event emits when NFTs are created (`from` == 0) and destroyed  (`to` == 0). Exception: during contract creation, any number of NFTs  may be created and assigned without emitting Transfer. At the time of  any transfer, the approved address for that NFT (if any) is reset to none."
      }
    },
    "kind": "dev",
    "methods": {
      "approve(address,uint256)": {
        "details": "The zero address indicates there is no approved address.  Throws unless `msg.sender` is the current NFT owner, or an authorized  operator of the current owner.",
        "params": {
          "_approved": "The new approved NFT controller",
          "_tokenId": "The NFT to approve"
        }
      },
      "balanceOf(address)": {
        "details": "NFTs assigned to the zero address are considered invalid, and this  function throws for queries about the zero address.",
        "params": {
          "_owner": "An address for whom to query the balance"
        },
        "returns": {
          "_0": "The number of NFTs owned by `_owner`, possibly zero"
        }
      },
      "getApproved(uint256)": {
        "details": "Throws if `_tokenId` is not a valid NFT.",
        "params": {
          "_tokenId": "The NFT to find the approved address for"
        },
        "returns": {
          "_0": "The approved address for this NFT, or the zero address if there is none"
        }
      },
      "isApprovedForAll(address,address)": {
        "params": {
          "_operator": "The address that acts on behalf of the owner",
          "_owner": "The address that owns the NFTs"
        },
        "returns": {
          "_0": "True if `_operator` is an approved operator for `_owner`, false otherwise"
        }
      },
      "ownerOf(uint256)": {
        "details": "NFTs assigned to zero address are considered invalid, and queries  about them do throw.",
        "params": {
          "_tokenId": "The identifier for an NFT"
        },
        "returns": {
          "_0": "The address of the owner of the NFT"
        }
      },
      "safeTransferFrom(address,address,uint256)": {
        "details": "This works identically to the other function with an extra data parameter,  except this function just sets data to \"\".",
        "params": {
          "_from": "The current owner of the NFT",
          "_to": "The new owner",
          "_tokenId": "The NFT to transfer"
        }
      },
      "safeTransferFrom(address,address,uint256,bytes)": {
        "details": "Throws unless `msg.sender` is the current owner, an authorized  operator, or the approved address for this NFT. Throws if `_from` is  not the current owner. Throws if `_to` is the zero address. Throws if  `_tokenId` is not a valid NFT. When transfer is complete, this function  checks if `_to` is a smart contract (code size > 0). If so, it calls  `onERC721Received` on `_to` and throws if the return value is not  `bytes4(keccak256(\"onERC721Received(address,address,uint256,bytes)\"))`.",
        "params": {
          "_from": "The current owner of the NFT",
          "_to": "The new owner",
          "_tokenId": "The NFT to transfer",
          "data": "Additional data with no specified format, sent in call to `_to`"
        }
      },
      "setApprovalForAll(address,bool)": {
        "details": "Emits the ApprovalForAll event. The contract MUST allow  multiple operators per owner.",
        "params": {
          "_approved": "True if the operator is approved, false to revoke approval",
          "_operator": "Address to add to the set of authorized operators"
        }
      },
      "transferFrom(address,address,uint256)": {
        "details": "Throws unless `msg.sender` is the current owner, an authorized  operator, or the approved address for this NFT. Throws if `_from` is  not the current owner. Throws if `_to` is the zero address. Throws if  `_tokenId` is not a valid NFT.",
        "params": {
          "_from": "The current owner of the NFT",
          "_to": "The new owner",
          "_tokenId": "The NFT to transfer"
        }
      }
    },
    "title": "ERC721 implementation",
    "version": 1
  },
  "userdoc": {
    "kind": "user",
    "methods": {
      "approve(address,uint256)": {
        "notice": "Change or reaffirm the approved address for an NFT"
      },
      "balanceOf(address)": {
        "notice": "Count all NFTs assigned to an owner"
      },
      "getApproved(uint256)": {
        "notice": "Get the approved address for a single NFT"
      },
      "isApprovedForAll(address,address)": {
        "notice": "Query if an address is an authorized operator for another address"
      },
      "ownerOf(uint256)": {
        "notice": "Find the owner of an NFT"
      },
      "safeTransferFrom(address,address,uint256)": {
        "notice": "Transfers the ownership of an NFT from one address to another address"
      },
      "safeTransferFrom(address,address,uint256,bytes)": {
        "notice": "Transfers the ownership of an NFT from one address to another address"
      },
      "setApprovalForAll(address,bool)": {
        "notice": "Enable or disable approval for a third party (\"operator\") to manage  all of `msg.sender`'s assets"
      },
      "supportsInterface(bytes4)": {
        "notice": "Check if a contract implements an interface"
      },
      "transferFrom(address,address,uint256)": {
        "notice": "Transfer ownership of an NFT -- THE CALLER IS RESPONSIBLE  TO CONFIRM THAT `_to` IS CAPABLE OF RECEIVING NFTS OR ELSE  THEY MAY BE PERMANENTLY LOST"
      }
    },
    "notice": "Implementation of the ERC721 interface",
    "version": 1
  }
}